:100000000C9462000C948A000C948A000C948A0070
:100010000C948A000C948A000C948A000C948A0038
:100020000C948A000C948A000C948A000C948A0028
:100030000C948A000C948A000C948A000C948A0018
:100040000C9427060C948A000C9497060C94710665
:100050000C948A000C948A000C948A000C948A00F8
:100060000C948A000C948A000000000024002700F1
:100070002A0000000000250028002B0000000000DE
:1000800023002600290004040404040404040202DA
:100090000202020203030303030301020408102007
:1000A0004080010204081020010204081020000012
:1000B0000008000201000003040700000000000027
:1000C0000000C90611241FBECFEFD8E0DEBFCDBFB0
:1000D00013E0A0E0B1E0E2EBF8E102C005900D9280
:1000E000AE30B107D9F723E0AEE0B3E001C01D9216
:1000F000A23EB207E1F710E0C2E6D0E004C02197CB
:10010000FE010E94510CC136D107C9F70E941307A6
:100110000C94570C0C940000833081F028F481304B
:1001200099F08230A9F008958730A9F08830C9F09D
:100130008430B1F4809180008F7D03C08091800075
:100140008F7780938000089584B58F7784BD08955C
:1001500084B58F7DFBCF8091B0008F778093B00006
:1001600008958091B0008F7DF9CFCF93DF93282F32
:1001700030E0F901E255FF4F8491F901E656FF4F57
:10018000D491F901EA57FF4FC491CC23A1F081111A
:100190000E948C00EC2FF0E0EE0FFF1FE458FF4FA1
:1001A000A591B491EC91ED2381E090E009F480E019
:1001B000DF91CF91089580E090E0FACF1F93CF9325
:1001C000DF93282F30E0F901E255FF4F8491F901C8
:1001D000E656FF4FD491F901EA57FF4FC491CC2363
:1001E000A9F0162F81110E948C00EC2FF0E0EE0F89
:1001F000FF1FEE58FF4FA591B4918FB7F894EC9183
:10020000111108C0D095DE23DC938FBFDF91CF9111
:100210001F910895DE2BF8CFCF93DF9390E0FC0180
:10022000E656FF4F24918A579F4FFC018491882303
:10023000D1F090E0880F991FFC01E859FF4FA5917C
:10024000B491FC01EE58FF4FC591D491623071F426
:100250009FB7F8943C91822F809583238C93E881FB
:100260002E2B28839FBFDF91CF9108958FB7F894ED
:10027000EC912E2B2C938FBFF6CF1F93CF93DF9350
:10028000182FEB0161E00E940C01209739F460E027
:10029000812FDF91CF911F910C94DE00CF3FD105CC
:1002A00011F461E0F5CFE12FF0E0E255FF4FE4916A
:1002B000E33031F140F4E130B1F0E230E1F0C03848
:1002C000D1057CF7E4CFE73029F1E83059F1E4308B
:1002D000B1F780918000806280938000D0938B0082
:1002E000C0938A0004C084B5806884BDC7BDDF9117
:1002F000CF911F91089584B5806284BDC8BDF7CFAA
:1003000080918000806880938000D0938900C093A2
:100310008800EDCF8091B00080688093B000C093DA
:10032000B300E5CF8091B00080628093B000C093AD
:10033000B400DDCF3FB7F8948091290390912A0350
:10034000A0912B03B0912C0326B5A89B05C02F3F8D
:1003500019F00196A11DB11D3FBFBA2FA92F982FEB
:100360008827BC01CD01620F711D811D911D42E0E6
:10037000660F771F881F991F4A95D1F708958F92AE
:100380009F92AF92BF92CF92DF92EF92FF924B017A
:100390005C010E949A016B017C010E949A016C1918
:1003A0007D098E099F09683E734081059105A8F378
:1003B00021E0821A9108A108B10888EEC80E83E0F6
:1003C000D81EE11CF11C81149104A104B10429F789
:1003D000FF90EF90DF90CF90BF90AF909F908F9065
:1003E0000895DC01ED91FC910190F081E02D0994DC
:1003F000AF92BF92CF92DF92EF92FF920F931F9333
:10040000CF93DF936C017B018B01040F151FEB0170
:100410005E01AE18BF08C017D10759F06991D60127
:10042000ED91FC910190F081E02DC6010995892B99
:1004300079F7C501DF91CF911F910F91FF90EF9058
:10044000DF90CF90BF90AF900895FC01538D448D05
:10045000252F30E0842F90E0821B930B541710F06F
:10046000CF96089501970895FC01918D828D98177C
:1004700061F0A28DAE0FBF2FB11D5D968C91928D54
:100480009F5F9F73928F90E008958FEF9FEF089585
:10049000FC01918D828D981731F0828DE80FF11D4E
:1004A000858D90E008958FEF9FEF0895FC01918D69
:1004B000228D892F90E0805C9F4F821B91098F7362
:1004C000992708958DE293E00E94560221E0892B3E
:1004D00009F420E0822F089580E090E0892B29F034
:1004E0000E94620281110C9400000895FC01A48D09
:1004F000A80FB92FB11DA35ABF4F2C91848D90E046
:1005000001968F739927848FA689B7892C93A08928
:10051000B1898C91837080648C93938D848D9813B2
:1005200006C00288F389E02D80818F7D8083089545
:10053000EF92FF920F931F93CF93DF93EC0181E033
:10054000888F9B8D8C8D98131AC0E889F9898081DA
:1005500085FF15C09FB7F894EE89FF896083E8890D
:10056000F98980818370806480839FBF81E090E0FF
:10057000DF91CF911F910F91FF90EF900895F62E8C
:100580000B8D10E00F5F1F4F0F731127E02E8C8D26
:100590008E110CC00FB607FCFACFE889F98980816B
:1005A00085FFF5CFCE010E947602F1CFEB8DEC0FE7
:1005B000FD2FF11DE35AFF4FF0829FB7F8940B8F88
:1005C000EA89FB8980818062CFCFCF93DF93EC01F2
:1005D000888D8823B9F0AA89BB89E889F9898C912B
:1005E00085FD03C0808186FD0DC00FB607FCF7CFE7
:1005F0008C9185FFF2CF808185FFEDCFCE010E94E7
:100600007602E9CFDF91CF910895089590E080E0E0
:100610000895CF93DF93EC0160E08E810E94DE00AD
:1006200061E08E810E94DE0060E08E810E94DE002B
:100630008BE891E00197F1F7DF91CF910895CF9288
:10064000DF92EF92FF920F931F93CF93DF936C0192
:100650007C0187E0E80EF11CD0E0C0E0062F10E03E
:10066000B8010C2E02C0759567950A94E2F7617087
:10067000F70181917F010E94DE002196C430D105EF
:1006800079F7C601DF91CF911F910F91FF90EF9005
:10069000DF90CF900C940903CF92DF92EF92FF92FC
:1006A0000F931F93CF93DF93EC01F62E642F8C8171
:1006B0000E94DE008D818F3F19F060E00E94DE0015
:1006C0000F2D10E08F8584FF25C06E0187E0C80ED6
:1006D000D11CF12CE12CB8010E2C02C07595679548
:1006E0000A94E2F76170F60181916F010E94DE00C9
:1006F000FFEFEF1AFF0A88E0E816F10461F7CE0178
:10070000DF91CF911F910F91FF90EF90DF90CF90ED
:100710000C940903B80184E0759567958A95E1F713
:10072000CE010E941F036F2DCE01DF91CF911F914B
:100730000F91FF90EF90DF90CF900C941F0340E05B
:10074000682F8AEC93E00C944C0381E00E949F0395
:100750008BE39FE10197F1F70895CF93DF93823008
:1007600029F49091D90398609093D9038093DD0385
:100770001092DE0380E48093DF0380E18093E00346
:1007800080E58093E10361E08091CE030E940C013B
:100790008091CF038F3F19F061E00E940C0161E06E
:1007A0008091D0030E940C01CAECD3E09E012A5C28
:1007B00033408091D90384FD0BC084E090E0219602
:1007C0002817390744F461E08E810E940C01EECFB6
:1007D00088E090E0F4CF8BE39DE00197F1F760E0D3
:1007E0008091CE030E94DE0060E08091D0030E94E1
:1007F000DE008091CF038F3F19F060E00E94DE00A1
:100800008091D90384FD34C063E08AEC93E00E94B8
:100810001F03CBE4D6E4CE010197F1F763E08AEC45
:1008200093E00E941F032197F1F763E08AEC93E0C5
:100830000E941F0383E592E00197F1F762E08AECE2
:1008400093E00E941F038091D90380620E949F035E
:1008500084E08093DA038CE00E949F030E94A5034A
:1008600082E08093DB0386E0DF91CF910C949F03BD
:1008700080620E949F038BE496E40197F1F78091D8
:10088000D90380620E949F0383E592E00197F1F70C
:100890008091D90380620E949F03D5CF9091DD03A0
:1008A000691710F06FEF690FE62FF0E0E653FC4F89
:1008B0009489890F80680C949F0341E00E944C0347
:1008C00081E090E00895FB0101900020E9F7319765
:1008D000AF01461B570BDC01ED91FC910280F381C7
:1008E000E02D09948F929F92AF92BF92EF92FF9268
:1008F0000F931F93CF93DF93CDB7DEB7A1970FB6BA
:10090000F894DEBF0FBECDBF7C01FA01CB0119A266
:10091000223008F42AE08E010F5D1F4F822E912CA9
:10092000B12CA12CBF01A50194010E94DD09F901A0
:10093000CA016A300CF5605DD8016E938D01232BDE
:10094000242B252B79F790E080E0109721F0BD0152
:10095000C7010E946304A1960FB6F894DEBF0FBED4
:10096000CDBFDF91CF911F910F91FF90EF90BF907E
:10097000AF909F908F900895695CDECFCF92DF9209
:10098000EF92FF920F931F93CF93DF936B01770F3B
:10099000EE08FF08F7FE1BC0EC016DE20E94F101BA
:1009A0008C0144275527BA014C195D096E097F094E
:1009B0002AE0CE010E947204800F911FDF91CF9137
:1009C0001F910F91FF90EF90DF90CF9008952AE054
:1009D000B701A601DF91CF911F910F91FF90EF908A
:1009E000DF90CF900C947204CF92DF92EF92FF923F
:1009F000CF93DF936C01990FEE08FF08F7FE23C039
:100A00006DE28DE293E00E94F101EC01442755274D
:100A1000BA014C195D096E097F092AE08DE293E065
:100A20000E947204C80FD91F6FE171E08DE293E05C
:100A30000E9463048C0F9D1FDF91CF91FF90EF9078
:100A4000DF90CF9008952AE0B701A6018DE293E0F0
:100A50000E947204EC01E8CFCF93DF93BC018DE2DA
:100A600093E00E946304EC016FE171E08DE293E09A
:100A70000E9463048C0F9D1FDF91CF9108952F92E8
:100A80003F924F925F926F927F928F929F92AF921E
:100A9000BF92CF92DF92EF92FF921F93CF93DF939B
:100AA000EC016A017B01722EAB019601CB01B6010C
:100AB0000E94450C62E271E0811126C04601570197
:100AC000E894B7F82FEF3FEF4FE75FE7C501B401B8
:100AD0000E94450C81110CC02FEF3FEF4FE75FE7FD
:100AE000C501B4010E947B0A66E271E0181664F049
:100AF0002FEF3FEF4FE75FE4C701B6010E94D30B32
:100B00001816B4F46AE271E0CE01DF91CF911F9123
:100B1000FF90EF90DF90CF90BF90AF909F908F901D
:100B20007F906F905F904F903F902F900C94630454
:100B30002FEF3FEF4FE75FECC701B6010E947B0A42
:100B400087FDE0CF20E030E0A901C701B6010E9497
:100B50007B0A312C212C87FF09C06DE2CE010E9457
:100B6000F1011C01F7FAF094F7F8F09410E060E05E
:100B700070E080E09FE3711641F020E030E040E259
:100B800051E40E94800A1F5FF6CFA70196010E94E0
:100B90000F0A2B013C010E94F20A4B015C012AE082
:100BA000BC01A401CE010E9472047C01E20CF31C82
:100BB0001123C1F1C501B4010E94210B9B01AC01BD
:100BC000C301B2010E940E0A4B015C016EE2CE012C
:100BD0000E94F101E80EF91E115020F120E030E0F2
:100BE00040E251E4C501B4010E94D80B2B013C0145
:100BF0000E94F20A4B01B12CA12C2AE0B501A401FC
:100C0000CE010E947204E80EF91EC501B4010E94D3
:100C1000210B9B01AC01C301B2010E940E0A4B01E2
:100C20005C01DACFC701DF91CF911F91FF90EF9068
:100C3000DF90CF90BF90AF909F908F907F906F90FC
:100C40005F904F903F902F9008950C9463041F92F3
:100C50000F920FB60F9211242F933F938F939F9370
:100C6000AF93BF938091250390912603A091270312
:100C7000B09128033091240323E0230F2D3758F53A
:100C80000196A11DB11D2093240380932503909309
:100C90002603A0932703B093280380912903909102
:100CA0002A03A0912B03B0912C030196A11DB11D25
:100CB0008093290390932A03A0932B03B0932C03D2
:100CC000BF91AF919F918F913F912F910F900FBE48
:100CD0000F901F90189526E8230F0296A11DB11DB5
:100CE000D2CF1F920F920FB60F9211242F933F93E2
:100CF0004F935F936F937F938F939F93AF93BF9324
:100D0000EF93FF938DE293E00E947602FF91EF91C3
:100D1000BF91AF919F918F917F916F915F914F9113
:100D20003F912F910F900FBE0F901F9018951F921B
:100D30000F920FB60F9211242F938F939F93EF93DF
:100D4000FF93E0913D03F0913E038081E0914303E6
:100D5000F091440382FD1BC09081809146038F5F18
:100D60008F7320914703821741F0E0914603F0E032
:100D7000E35DFC4F958F80934603FF91EF919F9128
:100D80008F912F910F900FBE0F901F90189580811B
:100D9000F4CFEDE2F3E01382128288EE93E0A0E05C
:100DA000B0E084839583A683B78385E091E0918347
:100DB000808385EC90E09587848784EC90E097872A
:100DC000868780EC90E0918B808B81EC90E0938B18
:100DD000828B82EC90E0958B848B86EC90E0978BF5
:100DE000868B118E128E138E148EEAECF3E0138232
:100DF000128287E191E09183808387E084838FEF83
:100E0000858388E0868385E0878384E0808783E02C
:100E1000818782E082871386148615861686178658
:100E200081E00C94AD03789484B5826084BD84B570
:100E3000816084BD85B5826085BD85B5816085BDD5
:100E400080916E00816080936E001092810080918D
:100E50008100826080938100809181008160809315
:100E60008100809180008160809380008091B1003A
:100E700084608093B1008091B00081608093B00065
:100E800080917A00846080937A0080917A008260F9
:100E900080937A0080917A00816080937A008091BB
:100EA0007A00806880937A001092C100E0913D033F
:100EB000F0913E0382E08083E0913903F0913A03A0
:100EC0001082E0913B03F0913C038FEC8083109201
:100ED0004503E0914103F091420386E08083E09175
:100EE0003F03F0914003808180618083E0913F0364
:100EF000F0914003808188608083E0913F03F0910E
:100F00004003808180688083E0913F03F09140033B
:100F100080818F7D808385E391E00E942C0561E0D4
:100F200089E00E940C0161E08CE00E940C0162E00B
:100F300086E00E940C0162E08AE00E940C0182E0DF
:100F40000E94AD036AE571E08AEC93E00E942506F9
:100F500088E491E00E942C0560ED77E080E090E06D
:100F60000E94BF010E94A50367E671E08AEC93E04E
:100F70000E94250661E080E00E944E046CEB72E066
:100F80008AEC93E00E94250682E791E00E942C05FE
:100F900068EB7BE080E090E00E94BF010E94A50327
:100FA00087EA91E00E942C0580E4A82ECC24CA9404
:100FB00093E0D92EE12CF12CBB24B39400E010E097
:100FC000A0927C0080917A00806480937A00809166
:100FD0007A0086FDFCCFC0917800D0917900D09343
:100FE0002303C09322032FEF30E0DE010E944A0C5E
:100FF000A70196010E94BE0930932103209320038C
:1010000030931F0320931E0324E630E0DE010E948C
:101010004A0CA70196010E94BE0930931D0320933C
:101020001C03BE01DD0F880B990B0E94230B20E0EF
:1010300030EC4FE754E40E94800A20E030E040EAC0
:1010400050E40E94D80B60931803709319038093A7
:101050001A0390931B0386E00E94B500C1E000973D
:1010600009F4C0E0892B09F047C080910001882372
:1010700009F442C02FB7F89480912503909126037C
:10108000A0912703B09128032FBF409114035091E2
:1010900015036091160370911703841B950BA60B23
:1010A000B70B87399105A105B10530F18091130384
:1010B0008B25809313032FB7F8948091250390918B
:1010C0002603A0912703B09128032FBF8093140318
:1010D00090931503A0931603B09317036BEC71E084
:1010E0008DE293E00E9425068091130381112CC1AB
:1010F00081E391E00E942C05C09300018AE00E94E8
:10110000B500892BC9F4809112038B2580931203BB
:1011100064EF71E08DE293E00E9425068091120356
:10112000811115C181E391E00E942C0568EC70E00B
:1011300080E090E00E94BF0160E080E00E944E04E9
:1011400080911303882309F405C160911E037091F7
:101150001F0389E00E943D0165E272E08AEC93E0A2
:101160000E94250664E372E08DE293E00E9425066A
:1011700060911C0370911D038DE293E00E94BE04F8
:1011800085E992E00E942C056FE472E08DE293E025
:101190000E94250680911E0390911F030E94F40473
:1011A00060912003709121038CE00E943D0160E07A
:1011B0008DE00E944E048091130369EB72E0882356
:1011C00051F060911C0370911D038AEC93E00E9422
:1011D000BE046AEB72E08AEC93E00E94250661E0AF
:1011E00080E00E944E046EEB72E08AEC93E00E9475
:1011F000250661E08AE00E944E0440911803509158
:10120000190360911A0370911B0322E08AEC93E0AA
:101210000E943F0567EC72E08AEC93E00E9425068D
:101220002FB7F8948091250390912603A09127036E
:10123000B09128032FBF40910E0350910F0360918E
:10124000100370911103841B950BA60BB70B893EFD
:101250009340A105B10508F465C06CEC72E08DE225
:1012600093E00E9425068091130361E371E08823D7
:1012700011F06EE271E08DE293E00E94250664EDCC
:1012800072E08DE293E00E94250680911303609145
:101290001C0370911D03811102C070E060E08DE2BB
:1012A00093E00E94BE046FED72E08DE293E00E9435
:1012B0002506409118035091190360911A0370910B
:1012C0001B0322E08DE293E00E943F056DEE72E089
:1012D0008DE293E00E942506609122037091230322
:1012E0008DE293E00E94BE046DEF72E08DE293E028
:1012F0000E94250689E00E94B5000E94F4042FB7E1
:10130000F8948091250390912603A0912703B09132
:1013100028032FBF80930E0390930F03A093100315
:10132000B093110368EC70E080E090E00E94BF0190
:101330000115110509F444CE0E946202882309F4C4
:101340003FCE0E9400003CCE8EE291E0D3CE8EE2F2
:1013500091E0EACE70E060E089E00E943D016CE639
:1013600072E08AEC93E00E9425068AE792E00E94F0
:101370002C058BE992E00E942C0512CF052E97FBDD
:101380001EF400940E94D50957FD07D00E94DD0984
:1013900007FC03D04EF40C94D50950954095309538
:1013A00021953F4F4F4F5F4F0895909580957095D1
:1013B00061957F4F8F4F9F4F0895A1E21A2EAA1B70
:1013C000BB1BFD010DC0AA1FBB1FEE1FFF1FA217F5
:1013D000B307E407F50720F0A21BB30BE40BF50BF2
:1013E000661F771F881F991F1A9469F7609570957B
:1013F000809590959B01AC01BD01CF010895A29FFE
:10140000B001B39FC001A39F700D811D1124911DD8
:10141000B29F700D811D1124911D08955058BB2756
:10142000AA270E94260A0C94990B0E948B0B38F075
:101430000E94920B20F039F49F3F19F426F40C948B
:10144000880B0EF4E095E7FB0C94820BE92F0E94C9
:10145000AA0B58F3BA17620773078407950720F0A1
:1014600079F4A6F50C94CC0B0EF4E0950B2EBA2F64
:10147000A02D0B01B90190010C01CA01A00111249A
:10148000FF27591B99F0593F50F4503E68F11A1646
:10149000F040A22F232F342F4427585FF3CF4695D7
:1014A00037952795A795F0405395C9F77EF41F16F9
:1014B000BA0B620B730B840BBAF09150A1F0FF0FC3
:1014C000BB1F661F771F881FC2F70EC0BA0F621FAF
:1014D000731F841F48F4879577956795B795F7959F
:1014E0009E3F08F0B0CF9395880F08F09927EE0F34
:1014F0009795879508950E945E0B08F481E0089502
:101500000E94940A0C94990B0E94920B58F00E942E
:101510008B0B40F029F45F3F29F00C94820B5111A2
:101520000C94CD0B0C94880B0E94AA0B68F39923A2
:10153000B1F3552391F3951B550BBB27AA276217CF
:101540007307840738F09F5F5F4F220F331F441FDC
:10155000AA1FA9F335D00E2E3AF0E0E832D0915010
:101560005040E695001CCAF72BD0FE2F29D0660FFD
:10157000771F881FBB1F261737074807AB07B0E840
:1015800009F0BB0B802DBF01FF2793585F4F3AF046
:101590009E3F510578F00C94820B0C94CD0B5F3F6D
:1015A000E4F3983ED4F3869577956795B795F795CC
:1015B0009F5FC9F7880F911D9695879597F90895B4
:1015C000E1E0660F771F881FBB1F62177307840750
:1015D000BA0720F0621B730B840BBA0BEE1F88F75F
:1015E000E09508950E94B20B88F09F5798F0B92FAC
:1015F0009927B751B0F0E1F0660F771F881F991F48
:101600001AF0BA95C9F714C0B13091F00E94CC0B12
:10161000B1E008950C94CC0B672F782F8827B85F22
:1016200039F0B93FCCF3869577956795B395D9F79F
:101630003EF490958095709561957F4F8F4F9F4FA9
:101640000895E89409C097FB3EF4909580957095B5
:1016500061957F4F8F4F9F4F9923A9F0F92F96E9FE
:10166000BB279395F695879577956795B795F11173
:10167000F8CFFAF4BB0F11F460FF1BC06F5F7F4F10
:101680008F4F9F4F16C0882311F096E911C0772322
:1016900021F09EE8872F762F05C0662371F096E82B
:1016A000862F70E060E02AF09A95660F771F881FFA
:1016B000DAF7880F9695879597F90895990F00089E
:1016C000550FAA0BE0E8FEEF16161706E807F90714
:1016D000C0F012161306E407F50798F0621B730BAF
:1016E000840B950B39F40A2661F0232B242B252B30
:1016F00021F408950A2609F4A140A6958FEF811DD3
:10170000811D089597F99F6780E870E060E0089573
:101710009FEF80EC089500240A9416161706180609
:101720000906089500240A941216130614060506E5
:101730000895092E0394000C11F4882352F0BB0F76
:1017400040F4BF2B11F460FF04C06F5F7F4F8F4FD9
:101750009F4F089557FD9058440F551F59F05F3F14
:1017600071F04795880F97FB991F61F09F3F79F0C3
:1017700087950895121613061406551FF2CF469545
:10178000F1DF08C0161617061806991FF1CF8695C7
:101790007105610508940895E894BB2766277727AB
:1017A000CB0197F908950E945E0B08F48FEF08951E
:1017B0000E94EB0B0C94990B0E948B0B38F00E944B
:1017C000920B20F0952311F00C94820B0C94880B53
:1017D00011240C94CD0B0E94AA0B70F3959FC1F3BA
:1017E000950F50E0551F629FF001729FBB27F00DCF
:1017F000B11D639FAA27F00DB11DAA1F649F662724
:10180000B00DA11D661F829F2227B00DA11D621F72
:10181000739FB00DA11D621F839FA00D611D221F2C
:10182000749F3327A00D611D231F849F600D211D10
:10183000822F762F6A2F11249F5750409AF0F1F093
:1018400088234AF0EE0FFF1FBB1F661F771F881FFC
:1018500091505040A9F79E3F510580F00C94820BA7
:101860000C94CD0B5F3FE4F3983ED4F386957795C7
:101870006795B795F795E7959F5FC1F7FE2B880FA2
:10188000911D9695879597F908950E945E0B880B98
:10189000990B08950E94FF09B7FF0895821B930BCF
:1018A0000895EE0FFF1F0590F491E02D0994F89430
:0218B000FFCF68
:1018B20001000000009802F8012502E502560234F8
:1018C200024802000000005D04F801060305030D52
:1018D2000A006E616E00696E66006F7666004F4E9A
:1018E200004F46460053797374656D2053746172DC
:1018F20074696E672E2E2E004C434420696E697403
:1019020069616C697A6564202D2053797374656D01
:10191200205265616479004279204A4D20547369EE
:1019220065004D7920696E666F3A204A4D205473E6
:101932006965207C204C65747320436F6E6E65630D
:10194200743A206A6179746D30383340676D616929
:101952006C2E636F6D2000536574757020636F6D1C
:10196200706C657465202D20656E746572696E6792
:10197200206D61696E206C6F6F7000425554544F38
:101982004E205052455353454421204D6F746F727F
:10199200207374617465206368616E676564207486
:1019A2006F3A2000566F6C746167652062757474BB
:1019B2006F6E2070726573736564202D20566F6C94
:1019C2007461676520646973706C617920737461F6
:1019D20074653A20004D6F746F724F4E205350441D
:1019E200203A20004D6F746F7220535045454420B9
:1019F20076616C75652073657420746F3A200044BB
:101A0200454255473A2050574D206F757470757492
:101A120020746F2070696E20393A20004D6F746F08
:101A2200724F46465350443A20004D6F746F7220F5
:101A320053504545442076616C756520736574206A
:101A4200746F3A2030206B6D2F6800444542554731
:101A52003A2050574D206F757470757420746F2042
:101A620070696E20393A2030003025202000564F10
:101A72004C544147453A0020562020004D6F746F68
:101A8200723A2000207C2053706565643A2000255C
:101A9200207C20566F6C746167653A200056207C6A
:101AA20020506F742056616C75653A2000207C20AE
:0E1AB20050696E20392053746174653A20002B
:00000001FF
