:100000000C9462000C948A000C948A000C948A0070
:100010000C948A000C948A000C948A000C948A0038
:100020000C948A000C948A000C948A000C948A0028
:100030000C948A000C948A000C948A000C948A0018
:100040000C94CD030C948A000C948A000C948A00C2
:100050000C948A000C948A000C948A000C948A00F8
:100060000C948A000C948A000000000024002700F1
:100070002A0000000000250028002B0000000000DE
:1000800023002600290004040404040404040202DA
:100090000202020203030303030301020408102007
:1000A0004080010204081020010204081020000012
:1000B0000008000201000003040700000000000027
:1000C0000000100611241FBECFEFD8E0DEBFCDBF69
:1000D00011E0A0E0B1E0E2E9F1E102C005900D928B
:1000E000A636B107D9F721E0A6E6B1E001C01D921E
:1000F000A539B207E1F710E0C2E6D0E004C02197CD
:10010000FE010E94C108C136D107C9F70E94170439
:100110000C94C7080C940000833081F028F48130DF
:1001200099F08230A9F008958730A9F08830C9F09D
:100130008430B1F4809180008F7D03C08091800075
:100140008F7780938000089584B58F7784BD08955C
:1001500084B58F7DFBCF8091B0008F778093B00006
:1001600008958091B0008F7DF9CFCF93DF93282F32
:1001700030E0F901E255FF4F8491F901E656FF4F57
:10018000D491F901EA57FF4FC491CC23A1F081111A
:100190000E948C00EC2FF0E0EE0FFF1FE458FF4FA1
:1001A000A591B491EC91ED2381E090E009F480E019
:1001B000DF91CF91089580E090E0FACF1F93CF9325
:1001C000DF93282F30E0F901E255FF4F8491F901C8
:1001D000E656FF4FD491F901EA57FF4FC491CC2363
:1001E000A9F0162F81110E948C00EC2FF0E0EE0F89
:1001F000FF1FEE58FF4FA591B4918FB7F894EC9183
:10020000111108C0D095DE23DC938FBFDF91CF9111
:100210001F910895DE2BF8CFCF93DF9390E0FC0180
:10022000E656FF4F24918A579F4FFC018491882303
:10023000D1F090E0880F991FFC01E859FF4FA5917C
:10024000B491FC01EE58FF4FC591D491623071F426
:100250009FB7F8943C91822F809583238C93E881FB
:100260002E2B28839FBFDF91CF9108958FB7F894ED
:10027000EC912E2B2C938FBFF6CF1F93CF93DF9350
:10028000182FEB0161E00E940C01209739F460E027
:10029000812FDF91CF911F910C94DE00CF3FD105CC
:1002A00011F461E0F5CFE12FF0E0E255FF4FE4916A
:1002B000E33031F140F4E130B1F0E230E1F0C03848
:1002C000D1057CF7E4CFE73029F1E83059F1E4308B
:1002D000B1F780918000806280938000D0938B0082
:1002E000C0938A0004C084B5806884BDC7BDDF9117
:1002F000CF911F91089584B5806284BDC8BDF7CFAA
:1003000080918000806880938000D0938900C093A2
:100310008800EDCF8091B00080688093B000C093DA
:10032000B300E5CF8091B00080628093B000C093AD
:10033000B400DDCF3FB7F8948091790190917A01B4
:10034000A0917B01B0917C0126B5A89B05C02F3FF1
:1003500019F00196A11DB11D3FBFBA2FA92F982FEB
:100360008827BC01CD01620F711D811D911D43E0E5
:10037000660F771F881F991F4A95D1F708958F92AE
:100380009F92AF92BF92CF92DF92EF92FF924B017A
:100390005C010E949A016B017C010E949A016C1918
:1003A0007D098E099F09683E734081059105A8F378
:1003B00021E0821A9108A108B10888EEC80E83E0F6
:1003C000D81EE11CF11C81149104A104B10429F789
:1003D000FF90EF90DF90CF90BF90AF909F908F9065
:1003E0000895AF92BF92CF92DF92EF92FF920F9358
:1003F0001F93CF93DF936C017B018B01040F151FBB
:10040000EB015E01AE18BF08C017D10759F0699122
:10041000D601ED91FC910190F081E02DC601099586
:10042000892B79F7C501DF91CF911F910F91FF9033
:10043000EF90DF90CF90BF90AF900895089590E037
:1004400080E00895FC0101900020E9F73197AF01A9
:10045000481B590BBC018DE791E00C94F1018F9280
:100460009F92AF92BF920F931F93CF93DF93CDB71D
:10047000DEB7A1970FB6F894DEBF0FBECDBF19A2AD
:10048000423008F44AE08E010F5D1F4F842E912CFC
:10049000B12CA12CA50194010E944D06E62FB901B3
:1004A000CA01EA30F4F4E05DD801EE938D01232B0C
:1004B000242B252B79F790E080E0109719F0CD01DF
:1004C0000E942202A1960FB6F894DEBF0FBECDBFE8
:1004D000DF91CF911F910F91BF90AF909F908F9020
:1004E0000895E95CE1CFCF93DF93EC0160E08E816A
:1004F0000E94DE0061E08E810E94DE0060E08E815D
:100500000E94DE0084EC90E00197F1F7DF91CF913B
:100510000895CF92DF92EF92FF920F931F93CF93A4
:10052000DF936C017C0187E0E80EF11CD0E0C0E0B5
:10053000062F10E0B8010C2E02C0759567950A943D
:10054000E2F76170F70181917F010E94DE00219640
:10055000C430D10579F7C601DF91CF911F910F917A
:10056000FF90EF90DF90CF900C947302CF92DF92C8
:10057000EF92FF920F931F93CF93DF93EC01F62E30
:10058000642F8C810E94DE008D818F3F19F060E026
:100590000E94DE000F2D10E08F8584FF25C06E01C4
:1005A00087E0C80ED11CF12CE12CB8010E2C02C042
:1005B000759567950A94E2F76170F60181916F0174
:1005C0000E94DE00FFEFEF1AFF0A88E0E816F10450
:1005D00061F7CE01DF91CF911F910F91FF90EF90C6
:1005E000DF90CF900C947302B80184E07595679505
:1005F0008A95E1F7CE010E9489026F2DCE01DF912D
:10060000CF911F910F91FF90EF90DF90CF900C94BE
:10061000890240E0682F8DE791E00C94B60281E0FA
:100620000E9409038CE99FE00197F1F70895CF93A9
:10063000DF93823029F490918C01986090938C0123
:10064000809390011092910180E48093920180E167
:100650008093930180E58093940161E08091810112
:100660000E940C01809182018F3F19F061E00E948D
:100670000C0161E0809183010E940C01CDE7D1E083
:100680009E012D57314080918C0184FD0BC084E088
:1006900090E021962817390744F461E08E810E948A
:1006A0000C01EECF88E090E0F4CF8CE996E801975A
:1006B000F1F760E0809181010E94DE0060E08091AE
:1006C00083010E94DE00809182018F3F19F060E07B
:1006D0000E94DE0080918C0184FD34C063E08DE7D0
:1006E00091E00E948902C4E2D3E2CE010197F1F7C2
:1006F00063E08DE791E00E9489022197F1F763E0C2
:100700008DE791E00E94890288E291E00197F1F77C
:1007100062E08DE791E00E94890280918C01806205
:100720000E94090384E080938D018CE00E940903FC
:100730000E940F0382E080938E0186E0DF91CF91CB
:100740000C94090380620E94090384E293E20197FA
:10075000F1F780918C0180620E94090388E291E0A8
:100760000197F1F780918C0180620E940903D5CF37
:1007700090919001691710F06FEF690FE62FF0E08C
:10078000E358FE4F9489890F80680C94090341E077
:100790000E94B60281E090E008951F920F920FB67A
:1007A0000F9211242F933F938F939F93AF93BF93F7
:1007B0008091750190917601A0917701B0917801B7
:1007C0003091740126E0230F2D3758F50296A11DB4
:1007D000B11D209374018093750190937601A093CD
:1007E0007701B09378018091790190917A01A0917D
:1007F0007B01B0917C010196A11DB11D809379010F
:1008000090937A01A0937B01B0937C01BF91AF914B
:100810009F918F913F912F910F900FBE0F901F903E
:10082000189529E8230F0396A11DB11DD2CF789406
:1008300084B5826084BD84B5816084BD85B58260E5
:1008400085BD85B5816085BD80916E008160809396
:100850006E001092810080918100826080938100FF
:10086000809181008160809381008091800081600F
:10087000809380008091B10084608093B10080916A
:10088000B00081608093B00080917A008460809392
:100890007A0080917A00826080937A0080917A0059
:1008A0008E7F80937A0080917A00806880937A00AE
:1008B0001092C10061E089E00E940C0161E08CE0CF
:1008C0000E940C0162E086E00E940C0162E08AE076
:1008D0000E940C0182E00E9417038CE091E00E94CC
:1008E000220260ED77E080E090E00E94BF010E946C
:1008F0000F0389E191E00E94220261E080E00E9402
:10090000B80384E291E00E94220268EB7BE080E081
:1009100090E00E94BF010E940F0300E488248A94A3
:1009200083E0982EA12CB12C11E0C0E0D0E0009320
:100930007C0080917A00806480937A0080917A00B4
:1009400086FDFCCFE0907800F0907900F092730182
:10095000E09272012FEF30E0D7010E94BA08A501A2
:1009600094010E942E062901309371012093700199
:1009700030936F0120936E0124E630E0D7010E948E
:10098000BA08A50194010E942E0630936D012093B0
:100990006C01B701FF0C880B990B0E94930720E0B4
:1009A00030EC4FE754E40E94F00620E030E040EAEB
:1009B00050E40E9448086093680170936901809335
:1009C0006A0190936B0186E00E94B500892B59F46F
:1009D0008091670181278093670168EC70E080E077
:1009E00090E00E94BF018AE00E94B500892B59F473
:1009F0008091660181278093660168EC70E080E059
:100A000090E00E94BF0180916701882309F468C0CB
:100A1000B20189E00E943D0160E080E00E94B803DD
:100A20008EE291E00E94220260917001709171014A
:100A30008CE00E943D0160E08DE00E94B803C09010
:100A40006C01D0906D010D2C000CEE08FF084AE0FF
:100A5000C701B601F7FE0EC041E06DE28DE791E0FF
:100A60000E94B60266277727CB016C197D098E0993
:100A70009F094AE00E942F028AE491E00E9422022C
:100A800061E080E00E94B8038CE491E00E942202C1
:100A900061E08AE00E94B803C0906801D0906901CB
:100AA000E0906A01F0906B01A7019601C701B601C1
:100AB0000E94B508882301F185E591E00E94220299
:100AC00081E691E00E94220264E670E080E090E01E
:100AD0000E94BF01209709F42ACF0E94000027CF6F
:100AE00070E060E089E00E943D0160E080E00E94EB
:100AF000B8038CE391E096CF26013701E89477F8AC
:100B00002FEF3FEF4FE75FE7C301B2010E94B50847
:100B100081110DC02FEF3FEF4FE75FE7C301B20137
:100B20000E94EB0618161CF489E591E0C7CF2FEF61
:100B30003FEF4FE75FE4C701B6010E944308181674
:100B40001CF48DE591E0BACF2FEF3FEF4FE75FEC5C
:100B5000C701B6010E94EB0687FDF3CF20E030E02D
:100B6000A901C701B6010E94EB0687FF0AC041E058
:100B70006DE28DE791E00E94B602F7FAF094F7F883
:100B8000F0942AE037ED43EA5BE3C701B6010E9427
:100B90007F062B013C010E9462076B017C010E94D1
:100BA00091079B01AC01C301B2010E947E062B019B
:100BB0003C014AE0C701B6010E942F0241E06EE20B
:100BC0008DE791E00E94B60220E030E040E251E47F
:100BD000C301B2010E9448082B013C010E94620738
:100BE0006B01F12CE12C4AE0C701B6010E942F02F3
:100BF000C701B6010E9491079B01AC01C301B2017C
:100C00000E947E0620E030E040E251E40E94480865
:100C10000E94620790E080E04AE00E942F0250CFDD
:100C2000EDE7F1E01382128284E091E0918380830A
:100C300087E084838FEF858388E0868385E08783E0
:100C400084E0808783E0818782E082871386148630
:100C500015861686178681E00C941703052E97FBE0
:100C60001EF400940E94450657FD07D00E944D06D1
:100C700007FC03D04EF40C944506509540953095F2
:100C800021953F4F4F4F5F4F0895909580957095F8
:100C900061957F4F8F4F9F4F0895A1E21A2EAA1B97
:100CA000BB1BFD010DC0AA1FBB1FEE1FFF1FA2171C
:100CB000B307E407F50720F0A21BB30BE40BF50B19
:100CC000661F771F881F991F1A9469F760957095A2
:100CD000809590959B01AC01BD01CF010895A29F25
:100CE000B001B39FC001A39F700D811D1124911D00
:100CF000B29F700D811D1124911D08955058BB277E
:100D0000AA270E9496060C9409080E94FB0738F057
:100D10000E94020820F039F49F3F19F426F40C9445
:100D2000F8070EF4E095E7FB0C94F207E92F0E9418
:100D30001A0858F3BA17620773078407950720F05B
:100D400079F4A6F50C943C080EF4E0950B2EBA2F1E
:100D5000A02D0B01B90190010C01CA01A0011124C1
:100D6000FF27591B99F0593F50F4503E68F11A166D
:100D7000F040A22F232F342F4427585FF3CF4695FE
:100D800037952795A795F0405395C9F77EF41F1620
:100D9000BA0B620B730B840BBAF09150A1F0FF0FEA
:100DA000BB1F661F771F881FC2F70EC0BA0F621FD6
:100DB000731F841F48F4879577956795B795F795C6
:100DC0009E3F08F0B0CF9395880F08F09927EE0F5B
:100DD0009795879508950E94CE0708F481E00895BD
:100DE0000E9404070C9409080E94020858F00E940F
:100DF000FB0740F029F45F3F29F00C94F2075111F2
:100E00000C943D080C94F8070E941A0868F3992383
:100E1000B1F3552391F3951B550BBB27AA276217F6
:100E20007307840738F09F5F5F4F220F331F441F03
:100E3000AA1FA9F335D00E2E3AF0E0E832D0915037
:100E40005040E695001CCAF72BD0FE2F29D0660F24
:100E5000771F881FBB1F261737074807AB07B0E867
:100E600009F0BB0B802DBF01FF2793585F4F3AF06D
:100E70009E3F510578F00C94F2070C943D085F3FBB
:100E8000E4F3983ED4F3869577956795B795F795F3
:100E90009F5FC9F7880F911D9695879597F90895DB
:100EA000E1E0660F771F881FBB1F62177307840777
:100EB000BA0720F0621B730B840BBA0BEE1F88F786
:100EC000E09508950E94220888F09F5798F0B92F66
:100ED0009927B751B0F0E1F0660F771F881F991F6F
:100EE0001AF0BA95C9F714C0B13091F00E943C08CD
:100EF000B1E008950C943C08672F782F8827B85FDD
:100F000039F0B93FCCF3869577956795B395D9F7C6
:100F10003EF490958095709561957F4F8F4F9F4FD0
:100F20000895E89409C097FB3EF4909580957095DC
:100F300061957F4F8F4F9F4F9923A9F0F92F96E925
:100F4000BB279395F695879577956795B795F1119A
:100F5000F8CFFAF4BB0F11F460FF1BC06F5F7F4F37
:100F60008F4F9F4F16C0882311F096E911C0772349
:100F700021F09EE8872F762F05C0662371F096E852
:100F8000862F70E060E02AF09A95660F771F881F21
:100F9000DAF7880F9695879597F90895990F0008C5
:100FA000550FAA0BE0E8FEEF16161706E807F9073B
:100FB000C0F012161306E407F50798F0621B730BD6
:100FC000840B950B39F40A2661F0232B242B252B57
:100FD00021F408950A2609F4A140A6958FEF811DFA
:100FE000811D089597F99F6780E870E060E008959B
:100FF0009FEF80EC089500240A9416161706180631
:101000000906089500240A9412161306140605060C
:101010000895092E0394000C11F4882352F0BB0F9D
:1010200040F4BF2B11F460FF04C06F5F7F4F8F4F00
:101030009F4F089557FD9058440F551F59F05F3F3B
:1010400071F04795880F97FB991F61F09F3F79F0EA
:1010500087950895121613061406551FF2CF46956C
:10106000F1DF08C0161617061806991FF1CF8695EE
:101070007105610508940895E894BB2766277727D2
:10108000CB0197F908950E94CE0708F48FEF0895D9
:101090000E945B080C9409080E94FB0738F00E942C
:1010A000020820F0952311F00C94F2070C94F80735
:1010B00011240C943D080E941A0870F3959FC1F307
:1010C000950F50E0551F629FF001729FBB27F00DF6
:1010D000B11D639FAA27F00DB11DAA1F649F66274B
:1010E000B00DA11D661F829F2227B00DA11D621F9A
:1010F000739FB00DA11D621F839FA00D611D221F54
:10110000749F3327A00D611D231F849F600D211D37
:10111000822F762F6A2F11249F5750409AF0F1F0BA
:1011200088234AF0EE0FFF1FBB1F661F771F881F23
:1011300091505040A9F79E3F510580F00C94F20762
:101140000C943D085F3FE4F3983ED4F38695779581
:101150006795B795F795E7959F5FC1F7FE2B880FC9
:10116000911D9695879597F908950E94CE07880B53
:10117000990B08950E946F06B7FF0895821B930B89
:101180000895EE0FFF1F0590F491E02D0994F89457
:02119000FFCF8F
:1011920000000000C703F1011F021E02537973749D
:1011A200656D205265616479004279204A4D205470
:1011B20073696500323231313334393231004D6F67
:1011C200746F724F4E535044203A20004D6F746F2B
:1011D200724F46465350443A20002500564F4C5415
:1011E2004147453A006E616E00696E66006F766631
:0611F20000205620200041
:00000001FF
